:100000000C9462000C948A000C948A000C948A0070
:100010000C948A000C948A000C948A000C948A0038
:100020000C948A000C948A000C948A000C948A0028
:100030000C948A000C948A000C948A000C948A0018
:100040000C9424060C948A000C94BC030C940A04AF
:100050000C948A000C948A000C948A000C948A00F8
:100060000C948A000C948A000000000024002700F1
:100070002A0000000000250028002B0000000000DE
:1000800023002600290004040404040404040202DA
:100090000202020203030303030301020408102007
:1000A0004080010204081020010204081020000012
:1000B0000007000201000003040600000000000029
:1000C0000000760511241FBECFEFD8E0DEBFCDBF04
:1000D00011E0A0E0B1E0EEE1F2E102C005900D9286
:1000E000AC34B107D9F712E0ACE4B1E001C01D9225
:1000F000A831B107E1F710E0C4ECD0E004C02297CA
:10010000FE010E94D208C23CD107C9F70E94CC056B
:100110000C940D090C940000CF93DF93BC01823046
:10012000910510F462E070E0A0911602B091170200
:10013000ED01E0E0F0E040E050E021C088819981ED
:100140008617970769F48A819B81309719F093830A
:10015000828304C09093170280931602FE0134C07C
:100160006817790738F44115510519F08417950778
:1001700008F4AC01FE018A819B819C01E901209772
:10018000E9F641155105A9F1CA01861B970B0497A1
:1001900008F4BA01E0E0F0E02AC08D919C9111973B
:1001A00084179507F9F46417750781F412968D91F9
:1001B0009C911397309719F09383828304C0909396
:1001C000170280931602FD0132964CC0CA01861BAD
:1001D000970BFD01E80FF91F6193719302978D93BF
:1001E0009C9340C0FD01828193819C01D9011097AD
:1001F000A1F68091140290911502892B41F480910F
:100200000E0190910F01909315028093140240917A
:100210001001509111014115510541F44DB75EB7E0
:1002200080910C0190910D01481B590B20911402F3
:1002300030911502CA01821B930B8617970780F035
:10024000AB014E5F5F4F8417950750F0420F531F6D
:100250005093150240931402F9016193719302C007
:10026000E0E0F0E0CF01DF91CF910895CF93DF93ED
:10027000009709F450C0EC0122971B821A82A091CA
:100280001602B0911702109709F140E050E0AC1748
:10029000BD0708F1BB83AA83FE0121913191E20FD2
:1002A000F31FAE17BF0779F48D919C911197280F1A
:1002B000391F2E5F3F4F3983288312968D919C9171
:1002C00013979B838A834115510571F4D0931702CC
:1002D000C093160220C012968D919C911397AD0188
:1002E000009711F0DC01D3CFFA01D383C2832191AF
:1002F0003191E20FF31FCE17DF0769F488819981EE
:10030000280F391F2E5F3F4FFA01318320838A81E6
:100310009B8193838283DF91CF910895A0E0B0E029
:10032000E4E9F1E00C94D8086C01009729F4CB01C2
:100330000E948C006C01C1C08EEF882E8FEF982E2A
:100340008C0C9D1C8601060F171F0815190508F453
:10035000B2C0F401A081B181A617B707B8F0A530EB
:10036000B10508F4AAC0CD0104978617970708F4D1
:10037000A4C01297A61BB70BF801A193B193D401A7
:100380006D937C93CF010E94360197C07B01EA1ADE
:10039000FB0AEEEFFFEFEE0EFF1E36016A0E7B1E2C
:1003A000C0911602D091170244245524AA24BB24DC
:1003B0004AC0C615D705E1F5488159814E155F053C
:1003C000B8F1CA0104978E159F05B0F41296A40FD8
:1003D000B51FF401B183A0832A813B8141145104EC
:1003E00031F0D20113963C932E93129766C030934E
:1003F00017022093160261C08A819B81F8019383C2
:100400008283425050404E195F095183408341140A
:10041000510431F0D20113961C930E93129704C02D
:100420001093170200931602F4017183608345C094
:1004300088819981A816B90608F45C012E018A8189
:100440009B819C01E901209709F0B3CF80911402B0
:100450009091150286159705E9F4A616B706D0F413
:1004600020911001309111012115310541F42DB772
:100470003EB780910C0190910D01281B390B02179A
:100480001307C8F41093150200931402D4016D935E
:100490007C9313C0CB010E948C00EC01009759F0B3
:1004A000F40140815181B6010E948A02C6010E9476
:1004B00036016E0102C0CC24DD24C601CDB7DEB703
:1004C000E0E10C94F4081F93FC0199278827BC01F4
:1004D000E89411911032E9F3193010F01E30C8F38E
:1004E0001B3251F01D3249F4689406C00E949A02F2
:1004F000610F711D811D911D119110531A30B0F3C0
:100500003EF490958095709561957F4F8F4F9F4FEA
:100510001F910895FB01DC0102C001900D92415032
:100520005040D8F70895FB01DC0101900D920020A6
:10053000E1F70895592F482F372F262F660F771F81
:10054000881F991F660F771F881F991F620F731FDF
:10055000841F951F660F771F881F991F08950E949B
:1005600063030E94EE020E94CB0208950F931F9333
:1005700009EE11E0C80140E855E260E070E00E9439
:1005800045040E94AB03C80160E071E00E942106AF
:100590001F910F9108950F931F93CF93DF93CBE299
:1005A000D1E00DE411E0F801619171918F01888132
:1005B0000E94B5062296F1E0C533DF07A1F76091EE
:1005C000570170915801809129010E94B50610923F
:1005D0004C01DF91CF911F910F910895AF92BF927F
:1005E000CF92DF92EF92FF920F931F93DF93CF93FF
:1005F000CDB7DEB72E970FB6F894DEBF0FBECDBFD6
:100600008E010F5F1F4FC80162E171E00E942E084A
:100610000E946C0620915B0130915C0140915D016C
:1006200050915E01621B730B840B950B2091370177
:10063000309138014091390150913A0162177307A6
:100640008407950718F59DE4C92E91E0D92E40E066
:1006500050E088E0E82EF12CEC0EFD1E58018A01D6
:100660000D5F1F4FC701B50198010E946108C701C6
:100670000E94B407F601619371936F01C7010E9454
:10068000A8080531110551F0A801E9CFEDE4F1E02A
:100690001192119281E0EB35F807D1F7CE01019666
:1006A0000E94A8082E960FB6F894DEBF0FBECDBFED
:1006B000CF91DF911F910F91FF90EF90DF90CF903E
:1006C000BF90AF9008950F931F9301E016E12BC0E8
:1006D00080915F019E3369F0E82FF0E0EE5EFE4FFF
:1006E00090838F5F80935F018731E8F010935F0103
:1006F0001AC0E82FF0E0EE5EFE4F1082109260010B
:1007000010925F0120934C010E946C0660935B0184
:1007100070935C0180935D0190935E0104C09C33F3
:1007200011F40093600189EE91E00E94CC04181648
:10073000190674F480914C01882351F489EE91E0FC
:100740000E94FD04982F20916001213041F7C0CF15
:100750001F910F910895CF93DF93C9E2D1E0888173
:1007600061E00E941507229681E0C533D807B9F7EA
:10077000DF91CF91089508951F920F920FB60F92B7
:1007800011242F933F934F938F939F93EF93FF9356
:100790008091C00082FD1DC04091C6002091A10142
:1007A0003091A2012F5F3F4F2F7330708091A301D2
:1007B0009091A4012817390771F0E091A101F091FF
:1007C000A201EF59FE4F40833093A2012093A10173
:1007D00002C08091C600FF91EF919F918F914F9140
:1007E0003F912F910F900FBE0F901F901895E091A1
:1007F000F501F091F601E05CFF4F8191919120812C
:100800003181821B930B8F739070892B11F00E94A2
:10081000BB0308951F920F920FB60F9211242F93CE
:100820003F938F939F93EF93FF932091E501309136
:10083000E6018091E7019091E8012817390731F42A
:100840008091C1008F7D8093C10014C0E091E701C9
:10085000F091E801EB55FE4F20818091E7019091E6
:10086000E80101968F7390709093E8018093E701FF
:100870002093C600FF91EF919F918F913F912F910F
:100880000F900FBE0F901F901895AF92BF92DF92FE
:10089000EF92FF920F931F93CF93DF93EC017A01B6
:1008A0008B01DD24403081EE580780E0680780E04E
:1008B000780711F0DD24D39491E0A92EB12CEC89B6
:1008C000FD89DD2069F0C50108A002C0880F991FCD
:1008D0000A94E2F7808360E079E08DE390E005C060
:1008E000108260E874E88EE190E0A80197010E9410
:1008F000AE082150304040405040569547953795BE
:10090000279580E12030380720F0DD2011F0DD242C
:10091000D6CFE889F9893083EA89FB89208319A237
:10092000EE89FF89408121E030E0C9010C8C02C0D2
:10093000880F991F0A94E2F7482B4083EE89FF89BC
:100940004081C9010D8C02C0880F991F0A94E2F7FB
:10095000482B4083EE89FF894081C9010E8C02C07B
:10096000880F991F0A94E2F7482B4083EE89FF898C
:1009700080810F8C02C0220F331F0A94E2F720956A
:1009800028232083DF91CF911F910F91FF90EF904B
:10099000DF90BF90AF900895DC011C96ED91FC9123
:1009A0001D97E05CFF4F2191319180819181281B3F
:1009B000390B2F733070C9010895DC011C96ED913D
:1009C000FC911D97E05CFF4F20813181E054F040A5
:1009D000DF01AE5BBF4F8D919C91119728173907AE
:1009E00019F42FEF3FEF07C08D919C91E80FF91F8D
:1009F0008081282F30E0C9010895DC011C96ED911B
:100A0000FC911D97E05CFF4F20813181E054F04064
:100A1000DF01AE5BBF4F8D919C911197281739076D
:100A200019F42FEF3FEF10C08D919C911197E80FB3
:100A3000F91F20818D919C91119701968F73907071
:100A400011969C938E9330E0C9010895DC01919634
:100A50008C919197882339F05496ED91FC9155979C
:100A6000808186FFF9CF91961C920895CF93DF93F2
:100A7000EC01EE85FF85E05CFF4F20813181E05481
:100A8000F0402F5F3F4F2F733070DF01AE5BBF4FE1
:100A90008D919C91119728173907D1F3E05CFF4F96
:100AA00080819181E054F040E80FF91F6083EE856A
:100AB000FF85E05CFF4F31832083EE89FF89208131
:100AC00081E090E00F8C02C0880F991F0A94E2F732
:100AD000282B208381E089A3EC89FD8980818064B3
:100AE000808381E090E0DF91CF9108951092EC0136
:100AF0001092EB0188EE93E0A0E0B0E08093ED016E
:100B00009093EE01A093EF01B093F0018FE391E099
:100B10009093EA018093E90181E691E09093F601D8
:100B20008093F50185EA91E09093F8018093F701B5
:100B300085EC90E09093FA018093F90184EC90E0C9
:100B40009093FC018093FB0180EC90E09093FE0178
:100B50008093FD0181EC90E0909300028093FF016F
:100B600082EC90E0909302028093010286EC90E088
:100B7000909304028093030284E08093050283E053
:100B80008093060287E08093070285E08093080245
:100B900081E0809309020895CF93DF930E947A0643
:100BA0000E94B602C7EFD3E00E94AF022097E1F3A4
:100BB0000E94F703F9CFCF92DF92EF92FF920F934B
:100BC0001F93CF93DF937C016B018A01C0E0D0E0DB
:100BD0000FC0D6016D916D01D701ED91FC9101908F
:100BE000F081E02DC7010995C80FD91F01501040B1
:100BF0000115110571F7CE01DF91CF911F910F9172
:100C0000FF90EF90DF90CF900895CF93DF93EC01AA
:100C10006115710519F420E030E00FC0DB010D9083
:100C20000020E9F71197A61BB70BE881F981028034
:100C3000F381E02DAD0109959C01C901DF91CF91B0
:100C400008950E94050608951F920F920FB60F9205
:100C500011242F933F938F939F93AF93BF938091D2
:100C60000F0290911002A0911102B09112023091E6
:100C700013020196A11DB11D232F2D5F2D3720F0EA
:100C80002D570196A11DB11D2093130280930F02D1
:100C900090931002A0931102B093120280910B0264
:100CA00090910C02A0910D02B0910E020196A11D2F
:100CB000B11D80930B0290930C02A0930D02B09390
:100CC0000E02BF91AF919F918F913F912F910F9005
:100CD0000FBE0F901F9018958FB7F89420910F02B8
:100CE0003091100240911102509112028FBFB90150
:100CF000CA010895789484B5826084BD84B581600A
:100D000084BD85B5826085BD85B5816085BDEEE613
:100D1000F0E0808181608083E1E8F0E010828081F2
:100D200082608083808181608083E0E8F0E0808160
:100D300081608083E1EBF0E0808184608083E0EB80
:100D4000F0E0808181608083EAE7F0E08081846068
:100D500080838081826080838081816080838081C4
:100D6000806880831092C10008951F93CF93DF9312
:100D7000182FEB0161E00E941507209709F44AC083
:100D8000CF3FD10509F449C0E12FF0E0E255FF4F14
:100D900084918330C1F0843028F4813051F0823066
:100DA000B1F50CC0863019F1873049F1843079F5FE
:100DB00014C084B5806884BDC7BD33C084B580626B
:100DC00084BDC8BD2EC08091800080688093800063
:100DD000D0938900C093880024C0809180008062F5
:100DE00080938000D0938B00C0938A001AC08091BA
:100DF000B00080688093B000C093B30012C08091AF
:100E0000B00080628093B000C093B4000AC0C038C4
:100E1000D1051CF4812F60E002C0812F61E00E94A7
:100E20008107DF91CF911F910895CF93DF93482FD2
:100E300050E0CA0186569F4FFC0134914A575F4FDC
:100E4000FA018491882369F190E0880F991FFC01D1
:100E5000E859FF4FA591B491FC01EE58FF4FC591A1
:100E6000D491662351F42FB7F8948C91932F9095D9
:100E700089238C93888189230BC0623061F42FB75A
:100E8000F8948C91932F909589238C938881832B50
:100E900088832FBF06C09FB7F8948C91832B8C93C7
:100EA0009FBFDF91CF910895833071F0843028F493
:100EB0008130A1F0823021F514C08630B1F0873046
:100EC000D1F08430E9F404C0809180008F7703C0B2
:100ED000809180008F7D80938000089584B58F7706
:100EE00002C084B58F7D84BD08958091B0008F7756
:100EF0008093B00008958091B0008F7D8093B00002
:100F00000895FF920F931F93F62E482F50E0CA01C9
:100F100082559F4FFC012491CA0186569F4FFC01C8
:100F200014914A575F4FFA0104910023C9F022231C
:100F300019F0822F0E945407E02FF0E0EE0FFF1F00
:100F4000EE58FF4FA591B4919FB7F894FF2021F47C
:100F50008C911095812302C08C91812B8C939FBF23
:100F60001F910F91FF900895FC018081918100975E
:100F700029F420E030E040E050E004C00E94630229
:100F80009B01AC01B901CA0108950F931F93CF9340
:100F9000DF93EC018B016F5F7F4F888199810E9405
:100FA0008E01009711F480E005C0998388831B832C
:100FB0000A8381E0DF91CF911F910F910895CF9324
:100FC000DF93EC0188819981892B29F08A819B81AB
:100FD0008617970760F4CE010E94C507882341F069
:100FE0008C819D81892B19F4E881F981108281E03F
:100FF000DF91CF910895CF93DF93EC0188819981A0
:10100000009711F00E943601198218821D821C82FD
:101010001B821A82DF91CF910895EF92FF920F9376
:101020001F93CF93DF93EC017B018A01BA010E94E9
:10103000DF07882321F4CE010E94FB0707C01D8330
:101040000C8388819981B7010E949302CE01DF91C0
:10105000CF911F910F91FF90EF900895CF93DF9361
:10106000EC01198218821B821A821D821C821E8248
:101070006115710551F0DB010D900020E9F7119722
:10108000A61BB70BAD010E940D08DF91CF9108950B
:101090000F931F93182F092F6115710559F0DB016C
:1010A0000D900020E9F71197A61BB70BAD010E9428
:1010B0000D0802C00E94FB07812F902F1F910F91F6
:1010C0000895BF92CF92DF92EF92FF920F931F93FA
:1010D000CF93DF93082FB92E6B017A01E901241712
:1010E000350710F4EA017901802F9B2D6BE071E048
:1010F0000E942E08D60114968D919C9115978E15FD
:101100009F05D0F08C179D0708F4EC01D601ED91F6
:10111000FC911197EC0FFD1F108110826D917C9155
:101120006E0D7F1D802F9B2D0E944808D601ED91EA
:10113000FC91EC0FFD1F1083802F9B2DDF91CF9131
:101140001F910F91FF90EF90DF90CF90BF90089587
:10115000FC01808191810E9436010895A1E21A2E3E
:10116000AA1BBB1BFD010DC0AA1FBB1FEE1FFF1F4B
:10117000A217B307E407F50720F0A21BB30BE40B9B
:10118000F50B661F771F881F991F1A9469F76095E2
:101190007095809590959B01AC01BD01CF0108959C
:1011A000EE0FFF1F0590F491E02D09942F923F92CE
:1011B0004F925F926F927F928F929F92AF92BF9267
:1011C000CF92DF92EF92FF920F931F93CF93DF9313
:1011D000CDB7DEB7CA1BDB0B0FB6F894DEBF0FBE70
:1011E000CDBF09942A88398848885F846E847D84BD
:1011F0008C849B84AA84B984C884DF80EE80FD80BF
:101200000C811B81AA81B981CE0FD11D0FB6F89434
:0E121000DEBF0FBECDBFED010895F894FFCFF5
:10121E00436F6E6E656374656421000020001802D2
:10122E0000003C3030303030303030303030303004
:10123E0030303030303030303E03000500060009CB
:10124E00000A000B000000E803000000000000365A
:0C125E0005DB05CC04FD04DD04260500C2
:040000050080015B1B
:00000001FF
