:100000000C9462000C948A000C948A000C948A0070
:100010000C948A000C948A000C948A000C948A0038
:100020000C948A000C948A000C948A000C948A0028
:100030000C948A000C948A000C948A000C948A0018
:100040000C94ED050C948A000C9485030C94D30356
:100050000C948A000C948A000C948A000C948A00F8
:100060000C948A000C948A000000000024002700F1
:100070002A0000000000250028002B0000000000DE
:1000800023002600290004040404040404040202DA
:100090000202020203030303030301020408102007
:1000A0004080010204081020010204081020000012
:1000B0000007000201000003040600000000000029
:1000C00000003F0511241FBECFEFD8E0DEBFCDBF3B
:1000D00011E0A0E0B1E0E4E9F1E102C005900D9289
:1000E000A834B107D9F712E0A8E4B1E001C01D922D
:1000F000A031B107E1F710E0C4ECD0E004C02297D2
:10010000FE010E948D08C23CD107C9F70E949505E7
:100110000C94C8080C940000CF93DF93BC0182308C
:10012000910510F462E070E0A0910E02B0910F0210
:10013000ED01E0E0F0E040E050E021C088819981ED
:100140008617970769F48A819B81309719F093830A
:10015000828304C090930F0280930E02FE0134C08C
:100160006817790738F44115510519F08417950778
:1001700008F4AC01FE018A819B819C01E901209772
:10018000E9F641155105A9F1CA01861B970B0497A1
:1001900008F4BA01E0E0F0E02AC08D919C9111973B
:1001A00084179507F9F46417750781F412968D91F9
:1001B0009C911397309719F09383828304C0909396
:1001C0000F0280930E02FD0132964CC0CA01861BBD
:1001D000970BFD01E80FF91F6193719302978D93BF
:1001E0009C9340C0FD01828193819C01D9011097AD
:1001F000A1F680910C0290910D02892B41F480911F
:100200000E0190910F0190930D0280930C0240918A
:100210001001509111014115510541F44DB75EB7E0
:1002200080910C0190910D01481B590B20910C02FB
:1002300030910D02CA01821B930B8617970780F03D
:10024000AB014E5F5F4F8417950750F0420F531F6D
:1002500050930D0240930C02F9016193719302C017
:10026000E0E0F0E0CF01DF91CF910895CF93DF93ED
:10027000009709F450C0EC0122971B821A82A091CA
:100280000E02B0910F02109709F140E050E0AC1758
:10029000BD0708F1BB83AA83FE0121913191E20FD2
:1002A000F31FAE17BF0779F48D919C911197280F1A
:1002B000391F2E5F3F4F3983288312968D919C9171
:1002C00013979B838A834115510571F4D0930F02D4
:1002D000C0930E0220C012968D919C911397AD0190
:1002E000009711F0DC01D3CFFA01D383C2832191AF
:1002F0003191E20FF31FCE17DF0769F488819981EE
:10030000280F391F2E5F3F4FFA01318320838A81E6
:100310009B8193838283DF91CF910895A0E0B0E029
:10032000E4E9F1E00C9493086C01009729F4CB0107
:100330000E948C006C01C1C08EEF882E8FEF982E2A
:100340008C0C9D1C8601060F171F0815190508F453
:10035000B2C0F401A081B181A617B707B8F0A530EB
:10036000B10508F4AAC0CD0104978617970708F4D1
:10037000A4C01297A61BB70BF801A193B193D401A7
:100380006D937C93CF010E94360197C07B01EA1ADE
:10039000FB0AEEEFFFEFEE0EFF1E36016A0E7B1E2C
:1003A000C0910E02D0910F0244245524AA24BB24EC
:1003B0004AC0C615D705E1F5488159814E155F053C
:1003C000B8F1CA0104978E159F05B0F41296A40FD8
:1003D000B51FF401B183A0832A813B8141145104EC
:1003E00031F0D20113963C932E93129766C030934E
:1003F0000F0220930E0261C08A819B81F8019383D2
:100400008283425050404E195F095183408341140A
:10041000510431F0D20113961C930E93129704C02D
:1004200010930F0200930E02F4017183608345C0A4
:1004300088819981A816B90608F45C012E018A8189
:100440009B819C01E901209709F0B3CF80910C02B8
:1004500090910D0286159705E9F4A616B706D0F41B
:1004600020911001309111012115310541F42DB772
:100470003EB780910C0190910D01281B390B02179A
:100480001307C8F410930D0200930C02D4016D936E
:100490007C9313C0CB010E948C00EC01009759F0B3
:1004A000F40140815181B6010E948A02C6010E9476
:1004B00036016E0102C0CC24DD24C601CDB7DEB703
:1004C000E0E10C94AF081F93FC0199278827BC0139
:1004D000E89411911032E9F3193010F01E30C8F38E
:1004E0001B3251F01D3249F4689406C00E949A02F2
:1004F000610F711D811D911D119110531A30B0F3C0
:100500003EF490958095709561957F4F8F4F9F4FEA
:100510001F910895FB01DC0102C001900D92415032
:100520005040D8F70895FB01DC0101900D920020A6
:10053000E1F70895592F482F372F262F660F771F81
:10054000881F991F660F771F881F991F620F731FDF
:10055000841F951F660F771F881F991F08950E949B
:1005600036030E94E3020E94CB0208950F931F936B
:1005700001EE11E0C80140E855E260E070E00E9441
:100580000E040E947403C80160E071E00E94EA0555
:100590001F910F910895CF93DF93C0E0D0E0FE014B
:1005A000E75DFE4FDE01A75BBE4F6D917C918081C0
:1005B0000E9470062296CA30D10589F71092480130
:1005C000DF91CF910895AF92BF92CF92DF92EF92D9
:1005D000FF920F931F93DF93CF93CDB7DEB72E9784
:1005E0000FB6F894DEBF0FBECDBF8E010F5F1F4F59
:1005F000C80162E171E00E94E90799E4C92E91E027
:10060000D92E40E050E088E0E82EF12CEC0EFD1EE3
:10061000B02EA12E8A010D5F1F4FC7016B2D7A2DC1
:1006200098010E941C08C7010E946F07F6016193A0
:1006300071936F01C7010E946308A801053111057C
:1006400049F78B2D9A2D0E9463082E960FB6F894C9
:10065000DEBF0FBECDBFCF91DF911F910F91FF90F5
:10066000EF90DF90CF90BF90AF9008950F931F93BE
:1006700001E016E121C0809157019E3369F0E82F17
:10068000F0E0EE5EFE4F90838F5F809357018731DD
:1006900098F01093570110C0E82FF0E0EE5EFE4F87
:1006A000108210925801109257012093480104C003
:1006B0009C3311F40093580181EE91E00E9495045F
:1006C0001816190674F480914801882351F481EEBC
:1006D00091E00E94C604982F20915801213041F7E3
:1006E000CACF1F910F910895CF93DF93C9E2D1E054
:1006F000888161E00E94D006229681E0C533D80748
:10070000B9F7DF91CF91089508951F920F920FB618
:100710000F9211242F933F934F938F939F93EF93B7
:10072000FF938091C00082FD1DC04091C6002091C2
:10073000990130919A012F5F3F4F2F733070809154
:100740009B0190919C012817390771F0E091990164
:10075000F0919A01E75AFE4F408330939A0120931B
:10076000990102C08091C600FF91EF919F918F91F6
:100770004F913F912F910F900FBE0F901F901895A2
:10078000E091ED01F091EE01E05CFF4F81919191DC
:1007900020813181821B930B8F739070892B11F014
:1007A0000E94840308951F920F920FB60F92112496
:1007B0002F933F938F939F93EF93FF932091DD01AE
:1007C0003091DE018091DF019091E0012817390717
:1007D00031F48091C1008F7D8093C10014C0E091FD
:1007E000DF01F091E001E356FE4F20818091DF01AF
:1007F0009091E00101968F7390709093E001809347
:10080000DF012093C600FF91EF919F918F913F915F
:100810002F910F900FBE0F901F901895AF92BF921F
:10082000DF92EF92FF920F931F93CF93DF93EC0130
:100830007A018B01DD24403081EE580780E06807A3
:1008400080E0780711F0DD24D39491E0A92EB12C3B
:10085000EC89FD89DD2069F0C50108A002C0880F80
:10086000991F0A94E2F7808360E079E08DE390E0DD
:1008700005C0108260E874E88EE190E0A80197015D
:100880000E9469082150304040405040569547959D
:100890003795279580E12030380720F0DD2011F0D2
:1008A000DD24D6CFE889F9893083EA89FB89208362
:1008B00019A2EE89FF89408121E030E0C9010C8C4A
:1008C00002C0880F991F0A94E2F7482B4083EE89F3
:1008D000FF894081C9010D8C02C0880F991F0A94BD
:1008E000E2F7482B4083EE89FF894081C9010E8CD5
:1008F00002C0880F991F0A94E2F7482B4083EE89C3
:10090000FF8980810F8C02C0220F331F0A94E2F707
:10091000209528232083DF91CF911F910F91FF9085
:10092000EF90DF90BF90AF900895DC011C96ED91A1
:10093000FC911D97E05CFF4F219131918081918165
:10094000281B390B2F733070C9010895DC011C96E8
:10095000ED91FC911D97E05CFF4F20813181E054C7
:10096000F040DF01AE5BBF4F8D919C91119728172E
:10097000390719F42FEF3FEF07C08D919C91E80FD5
:10098000F91F8081282F30E0C9010895DC011C96F1
:10099000ED91FC911D97E05CFF4F20813181E05487
:1009A000F040DF01AE5BBF4F8D919C9111972817EE
:1009B000390719F42FEF3FEF10C08D919C911197DB
:1009C000E80FF91F20818D919C91119701968F73EB
:1009D000907011969C938E9330E0C9010895DC01CC
:1009E00091968C919197882339F05496ED91FC91D2
:1009F0005597808186FFF9CF91961C920895CF93E9
:100A0000DF93EC01EE85FF85E05CFF4F20813181B3
:100A1000E054F0402F5F3F4F2F733070DF01AE5B2B
:100A2000BF4F8D919C91119728173907D1F3E05C46
:100A3000FF4F80819181E054F040E80FF91F6083FF
:100A4000EE85FF85E05CFF4F31832083EE89FF89CF
:100A5000208181E090E00F8C02C0880F991F0A94DA
:100A6000E2F7282B208381E089A3EC89FD8980812E
:100A70008064808381E090E0DF91CF9108951092AF
:100A8000E4011092E30188EE93E0A0E0B0E08093EF
:100A9000E5019093E601A093E701B093E8018BE3B1
:100AA00091E09093E2018093E10189E591E09093D8
:100AB000EE018093ED018DE991E09093F001809338
:100AC000EF0185EC90E09093F2018093F10184ECCA
:100AD00090E09093F4018093F30180EC90E0909388
:100AE000F6018093F50181EC90E09093F8018093FA
:100AF000F70182EC90E09093FA018093F90186EC83
:100B000090E09093FC018093FB0184E08093FD01D1
:100B100083E08093FE0187E08093FF0185E080936E
:100B2000000281E0809301020895CF93DF930E9439
:100B300035060E94B602C0ECD3E00E94AF022097B7
:100B4000E1F30E94C003F9CFCF92DF92EF92FF92C0
:100B50000F931F93CF93DF937C016B018A01C0E059
:100B6000D0E00FC0D6016D916D01D701ED91FC91E0
:100B70000190F081E02DC7010995C80FD91F0150E0
:100B800010400115110571F7CE01DF91CF911F9132
:100B90000F91FF90EF90DF90CF900895CF93DF9368
:100BA000EC016115710519F420E030E00FC0DB01A4
:100BB0000D900020E9F71197A61BB70BE881F9818A
:100BC0000280F381E02DAD0109959C01C901DF91FF
:100BD000CF9108950E94CE0508951F920F920FB6EF
:100BE0000F9211242F933F938F939F93AF93BF93B3
:100BF0008091070290910802A0910902B0910A0227
:100C000030910B020196A11DB11D232F2D5F2D37B1
:100C100020F02D570196A11DB11D20930B0280934A
:100C2000070290930802A0930902B0930A028091F0
:100C3000030290910402A0910502B0910602019670
:100C4000A11DB11D8093030290930402A09305029D
:100C5000B0930602BF91AF919F918F913F912F91D9
:100C60000F900FBE0F901F901895789484B58260F6
:100C700084BD84B5816084BD85B5826085BD85B540
:100C8000816085BDEEE6F0E0808181608083E1E8EF
:100C9000F0E0108280818260808380818160808327
:100CA000E0E8F0E0808181608083E1EBF0E080812A
:100CB00084608083E0EBF0E0808181608083EAE7FC
:100CC000F0E0808184608083808182608083808185
:100CD000816080838081806880831092C100089544
:100CE0001F93CF93DF93182FEB0161E00E94D00692
:100CF000209709F44AC0CF3FD10509F449C0E12F3C
:100D0000F0E0E255FF4F84918330C1F0843028F445
:100D1000813051F08230B1F50CC0863019F1873046
:100D200049F1843079F514C084B5806884BDC7BDAD
:100D300033C084B5806284BDC8BD2EC08091800060
:100D4000806880938000D0938900C093880024C07D
:100D500080918000806280938000D0938B00C0934C
:100D60008A001AC08091B00080688093B000C09360
:100D7000B30012C08091B00080628093B000C09335
:100D8000B4000AC0C038D1051CF4812F60E002C055
:100D9000812F61E00E943C07DF91CF911F91089560
:100DA000CF93DF93482F50E0CA0186569F4FFC0136
:100DB00034914A575F4FFA018491882369F190E09A
:100DC000880F991FFC01E859FF4FA591B491FC01D0
:100DD000EE58FF4FC591D491662351F42FB7F89484
:100DE0008C91932F909589238C93888189230BC0B4
:100DF000623061F42FB7F8948C91932F90958923EA
:100E00008C938881832B88832FBF06C09FB7F8946B
:100E10008C91832B8C939FBFDF91CF91089583306A
:100E200071F0843028F48130A1F0823021F514C0B3
:100E30008630B1F08730D1F08430E9F404C080917D
:100E400080008F7703C0809180008F7D8093800029
:100E5000089584B58F7702C084B58F7D84BD0895D1
:100E60008091B0008F778093B00008958091B0009A
:100E70008F7D8093B0000895FF920F931F93F62EFD
:100E8000482F50E0CA0182559F4FFC012491CA01AE
:100E900086569F4FFC0114914A575F4FFA01049107
:100EA0000023C9F0222319F0822F0E940F07E02FA0
:100EB000F0E0EE0FFF1FEE58FF4FA591B4919FB7E2
:100EC000F894FF2021F48C911095812302C08C911D
:100ED000812B8C939FBF1F910F91FF900895FC0170
:100EE00080819181009729F420E030E040E050E0DB
:100EF00004C00E9463029B01AC01B901CA010895BC
:100F00000F931F93CF93DF93EC018B016F5F7F4FA4
:100F1000888199810E948E01009711F480E005C0BC
:100F2000998388831B830A8381E0DF91CF911F918E
:100F30000F910895CF93DF93EC0188819981892BDC
:100F400029F08A819B818617970760F4CE010E9461
:100F50008007882341F08C819D81892B19F4E881D9
:100F6000F981108281E0DF91CF910895CF93DF93D3
:100F7000EC0188819981009711F00E943601198255
:100F800018821D821C821B821A82DF91CF910895E4
:100F9000EF92FF920F931F93CF93DF93EC017B01AE
:100FA0008A01BA010E949A07882321F4CE010E9487
:100FB000B60707C01D830C8388819981B7010E9401
:100FC0009302CE01DF91CF911F910F91FF90EF908F
:100FD0000895CF93DF93EC01198218821B821A8245
:100FE0001D821C821E826115710551F0DB010D907E
:100FF0000020E9F71197A61BB70BAD010E94C807A7
:10100000DF91CF9108950F931F93182F092F61152A
:10101000710559F0DB010D900020E9F71197A61B2F
:10102000B70BAD010E94C80702C00E94B607812F0E
:10103000902F1F910F910895BF92CF92DF92EF9260
:10104000FF920F931F93CF93DF93082FB92E6B015D
:101050007A01E9012417350710F4EA017901802F9C
:101060009B2D6BE071E00E94E907D60114968D91EB
:101070009C9115978E159F05D0F08C179D0708F44D
:10108000EC01D601ED91FC911197EC0FFD1F108141
:1010900010826D917C916E0D7F1D802F9B2D0E9483
:1010A0000308D601ED91FC91EC0FFD1F1083802FFA
:1010B0009B2DDF91CF911F910F91FF90EF90DF90CB
:1010C000CF90BF900895FC01808191810E943601EC
:1010D0000895A1E21A2EAA1BBB1BFD010DC0AA1F79
:1010E000BB1FEE1FFF1FA217B307E407F50720F091
:1010F000A21BB30BE40BF50B661F771F881F991F0C
:101100001A9469F760957095809590959B01AC0154
:10111000BD01CF010895EE0FFF1F0590F491E02D62
:1011200009942F923F924F925F926F927F928F928B
:101130009F92AF92BF92CF92DF92EF92FF920F9366
:101140001F93CF93DF93CDB7DEB7CA1BDB0B0FB670
:10115000F894DEBF0FBECDBF09942A88398848882D
:101160005F846E847D848C849B84AA84B984C884C3
:10117000DF80EE80FD800C811B81AA81B981CE0FBA
:10118000D11D0FB6F894DEBF0FBECDBFED0108959F
:04119000F894FFCF01
:10119400436F6E6E65637465642100002000100265
:1011A40000003C303030303030303030303030308F
:1011B40030303030303030303E0300050006000956
:1011C400000A000B00000000000000FF04A40595C5
:0811D40004C604A604EF0400A8
:00000001FF
