:100000000C9462000C948A000C948A000C948A0070
:100010000C948A000C948A000C948A000C948A0038
:100020000C948A000C948A000C948A000C948A0028
:100030000C948A000C948A000C948A000C948A0018
:100040000C94F3020C948A000C94C1020C949B0251
:100050000C948A000C948A000C948A000C948A00F8
:100060000C948A000C948A000000000023002600F3
:10007000290000000008000201000003040700003E
:1000800000000000000000000000250028002B00F8
:1000900000000000240027002A00040404040404D3
:1000A0000404020202020202030303030303010227
:1000B00004081020408001020408102001020408F6
:1000C0001020280511241FBECFEFD8E0DEBFCDBF22
:1000D00011E0A0E0B1E0ECEFFFE002C005900D926E
:1000E000A634B107D9F722E0A6E4B1E001C01D9221
:1000F000A530B207E1F710E0C2E6D0E004C02197D6
:10010000FE010E947705C136D107C9F70E943D0361
:100110000C94FC070C94000090E0FC01E255FF4FAA
:100120002491FC01E656FF4F8491882399F090E0DA
:10013000880F991FFC01E057FF4FA591B491FC0176
:10014000EA57FF4F859194918FB7F894EC91E22B89
:10015000EC938FBF0895CF92DF92EF92FF920F93AF
:100160001F93CF93DF936C017A018B01C0E0D0E045
:10017000CE15DF0589F0D8016D918D01D601ED9185
:10018000FC910190F081E02DC6010995892B11F4B5
:100190007E0102C02196ECCFC701DF91CF911F9164
:1001A0000F91FF90EF90DF90CF900895FC01918D1B
:1001B000828D981761F0828DDF01A80FB11D5D96C9
:1001C0008C91928D9F5F9F73928F90E008958FEF37
:1001D0009FEF0895FC01918D828D981731F0828DEB
:1001E000E80FF11D858D90E008958FEF9FEF089542
:1001F000FC01918D228D892F90E0805C9F4F821BA6
:1002000091098F73992708958DE491E00E94F80079
:1002100021E0892B09F420E0822F0895FC01848DD0
:10022000DF01A80FB11DA35ABF4F2C91848D90E020
:1002300001968F739927848FA689B7892C93A089FB
:10024000B1898C9180648C93938D848D981306C0B2
:100250000288F389E02D80818F7D80830895EF925D
:10026000FF920F931F93CF93DF93EC0181E0888F70
:100270009B8D8C8D981305C0E889F989808185FD57
:1002800024C0F62E0B8D10E00F5F1F4F0F73112748
:10029000E02E8C8DE8120CC00FB607FCFACFE8896F
:1002A000F989808185FFF5CFCE010E940E01F1CF43
:1002B0008B8DFE01E80FF11DE35AFF4FF0820B8F8B
:1002C000EA89FB898081806207C0EE89FF896083AB
:1002D000E889F98980818064808381E090E0DF9102
:1002E000CF911F910F91FF90EF900895CF93DF93DF
:1002F000EC01888D8823C9F0EA89FB89808185FD1E
:1003000005C0A889B9898C9186FD0FC00FB607FC7E
:10031000F5CF808185FFF2CFA889B9898C9185FFBF
:10032000EDCFCE010E940E01E7CFDF91CF9108956E
:1003300080E090E0892B29F00E94040181110C9447
:1003400000000895833081F028F4813099F08230E4
:10035000A1F008958730A9F08830B9F08430D1F445
:10036000809180008F7D03C0809180008F77809383
:100370008000089584B58F7702C084B58F7D84BDD9
:1003800008958091B0008F7703C08091B0008F7D79
:100390008093B00008951F93CF93DF93282F30E010
:1003A000F901EE58FF4F8491F901E255FF4FD491C6
:1003B000F901E656FF4FC491CC23C9F0162F8111E5
:1003C0000E94A201EC2FF0E0EE0FFF1FEA57FF4F53
:1003D000A591B4918FB7F894111105C09C91ED2FA0
:1003E000E095E92302C0EC91ED2BEC938FBFDF91F8
:1003F000CF911F9108951F93CF93DF93182FEB0197
:100400000E948C00209711F460E004C0CF3FD1051A
:1004100039F461E0812FDF91CF911F910C94CB01D2
:10042000E12FF0E0EE58FF4FE491E330F9F048F4AB
:10043000E130B9F0E230A1F584B5806284BDC8BD79
:1004400034C0E730E9F0E83019F1E43049F5809143
:100450008000806280938000D0938B00C0938A00DC
:1004600024C084B5806884BDC7BD1FC08091800052
:10047000806880938000D0938900C093880015C065
:100480008091B00080688093B000C093B3000DC02D
:100490008091B00080628093B000C093B40005C02A
:1004A000C038D1050CF0B5CFAFCFDF91CF911F9100
:1004B00008950E947407EF92FF920F931F93CF93BA
:1004C000DF93EC017B018A0188819981009729F0F3
:1004D0002A813B8124173507F8F4B8016F5F7F4FFD
:1004E0000E94AA06009759F0998388831B830A8388
:1004F0002C813D81232B81F4FC0110820DC0888169
:100500009981009711F00E941206198218821D82AB
:100510001C821B821A8207C01D830C83B70188814D
:1005200099810E948207CE01DF91CF911F910F9197
:10053000FF90EF9008951F920F920FB60F92112423
:100540002F933F934F935F936F937F938F939F93DB
:10055000AF93BF93EF93FF938DE491E00E940E0160
:10056000FF91EF91BF91AF919F918F917F916F918B
:100570005F914F913F912F910F900FBE0F901F9061
:1005800018951F920F920FB60F9211242F938F93ED
:100590009F93EF93FF93E0915D01F0915E01808165
:1005A000E0916301F091640182FD12C0908180911D
:1005B00066018F5F8F7320916701821751F0E09180
:1005C0006601F0E0E35BFE4F958F8093660101C00A
:1005D0008081FF91EF919F918F912F910F900FBE8E
:1005E0000F901F9018951F920F920FB60F92112423
:1005F0002F933F938F939F93AF93BF938091EE017F
:100600009091EF01A091F001B091F10130914A0178
:1006100023E0230F2D3720F40196A11DB11D05C045
:1006200026E8230F0296A11DB11D20934A01809355
:10063000EE019093EF01A093F001B093F10180914E
:10064000460190914701A0914801B091490101965E
:10065000A11DB11D8093460190934701A0934801CD
:10066000B0934901BF91AF919F918F913F912F918D
:100670000F900FBE0F901F901895CF93DF93CDB7BB
:10068000DEB72D970FB6F894DEBF0FBECDBF7894BE
:1006900084B5826084BD84B5816084BD85B5826087
:1006A00085BD85B5816085BD80916E008160809338
:1006B0006E001092810080918100826080938100A1
:1006C00080918100816080938100809180008160B1
:1006D000809380008091B10084608093B10080910C
:1006E000B00081608093B00080917A008460809334
:1006F0007A0080917A00826080937A0080917A00FB
:10070000816080937A0080917A00806880937A007B
:100710001092C100E0915D01F0915E0182E0808362
:10072000E0915901F0915A011082E0915B01F09142
:100730005C018FEC808310926501E0916101F09182
:10074000620186E08083E0915F01F0916001808129
:1007500080618083E0915F01F09160018081886019
:100760008083E0915F01F0916001808180688083E7
:10077000E0915F01F091600180818F7D80830DE2C7
:1007800011E0F80180810E5F1F4F0E948C00F1E0A4
:1007900009331F07B1F74AE050E06BE371E08DE4E5
:1007A00091E00E94AB00BB24B39430E0632E31E0B3
:1007B000732E44E6242E312C412C512C8DE491E0F3
:1007C0000E94F800181619060CF043C08091F2013F
:1007D00081113FC08DE491E00E94D60090914C01C0
:1007E000992389F1E0914B018E3379F0AE2FB0E07F
:1007F000A050BF4F8C93EF5FE73118F4E0934B01AB
:10080000DDCF26E120934B01D9CFF0E0E050FF4F40
:10081000108210924C0110924B01B092F2012FB74E
:10082000F8948091EE019091EF01A091F001B091C8
:10083000F1012FBF8093EA019093EB01A093EC01AB
:10084000B093ED01BBCF8C3309F0B8CFB0924C011F
:10085000B5CF18861F821A8619861C861B86F3015F
:1008600001900020E9F73197AF014050514060E01E
:1008700071E0CE0107960E945B022FB7F894809139
:10088000EE019091EF01A091F001B091F1012FBF25
:100890004091EA015091EB016091EC017091ED0102
:1008A000841B950BA60BB70B883E9340A105B105A1
:1008B00008F07DC023EF822E21E0922E00E010E0B0
:1008C000680183E0C80ED11CC016D10620F4202F89
:1008D000A12E860102C02C2DAD2C1A8219821C82F9
:1008E0001B821E821D8240E050E065E471E0CE0173
:1008F00001962D870E945B028B859C852D850817AC
:10090000190790F5E22EFA2C8E159F0508F47C014C
:10091000EF81F885EE0DFF1DA08010826F81788534
:10092000600F711F6115710569F0FB0101900020D6
:10093000E9F73197AF01461B570BCE0101960E9494
:100940005B020CC089819A81009711F00E94120607
:100950001A8219821E821D821C821B828F819885B9
:10096000FC01EE0DFF1DA08209811A810115110500
:1009700021F0C8010E94890703C060E070E0CB014C
:10098000F401619371934F01C8010E941206860120
:100990000531110509F094CF8F8198850E941206C8
:1009A00003EF11E09FE2E92E91E0F92E09C0E3EF99
:1009B000F1E01192119222E0E130F207D1F7ECCF91
:1009C000F801619171918F01F7018081F2E0EF0EE2
:1009D000F11C0E94FB0121E00D3F120789F72FB7A0
:1009E000F8946091EE017091EF018091F001909187
:1009F000F1012FBFA20191010E94550520FD19C0F0
:100A0000EFE7F0E08491EBEBF0E00491E7EAF0E04F
:100A10001491112371F081110E94A201E12FF0E0E5
:100A2000EE0FFF1FE859FF4FA591B491EC910E23F3
:100A300051F460E070E083E00E94FB011092F2014B
:100A40000E949801BBCE6091FD017091FE01F3CF31
:100A5000EDE4F1E01382128288EE93E0A0E0B0E0D2
:100A600084839583A683B78381E291E09183808319
:100A700085EC90E09587848784EC90E09787868763
:100A800080EC90E0918B808B81EC90E0938B828B5B
:100A900082EC90E0958B848B86EC90E0978B868B34
:100AA000118E128E138E148E0895A1E21A2EAA1B97
:100AB000BB1BFD010DC0AA1FBB1FEE1FFF1FA2170E
:100AC000B307E407F50720F0A21BB30BE40BF50B0B
:100AD000661F771F881F991F1A9469F76095709594
:100AE000809590959B01AC01BD01CF010895EE0F5B
:100AF000FF1F0590F491E02D0994CF93DF9382308E
:100B0000910510F482E090E0E0910302F09104027C
:100B100020E030E0C0E0D0E0309711F14081518119
:100B200048175907C0F04817590761F4828193812B
:100B3000209719F09B838A832BC0909304028093A3
:100B4000030226C02115310519F04217530718F486
:100B50009A01BE01DF01EF010280F381E02DDCCFBD
:100B60002115310509F1281B390B2430310590F48A
:100B700012968D919C9113976115710521F0FB01DF
:100B80009383828304C09093040280930302FD0147
:100B9000329644C0FD01E20FF31F819391932250DE
:100BA00031092D933C933AC0209101023091020209
:100BB000232B41F42091190130911A013093020244
:100BC0002093010220911701309118012115310560
:100BD00041F42DB73EB740911B0150911C01241BDD
:100BE000350BE0910102F0910202E217F307A0F445
:100BF0002E1B3F0B2817390778F0AC014E5F5F4F73
:100C00002417350748F04E0F5F1F509302024093A0
:100C100001028193919302C0E0E0F0E0CF01DF9107
:100C2000CF9108950F931F93CF93DF93009709F40B
:100C30008CC0FC0132971382128200910302109142
:100C400004020115110581F420813181820F931F67
:100C500020910102309102022817390779F5F093AB
:100C60000202E093010271C0D80140E050E0AE17EB
:100C7000BF0750F412962D913C911397AD012115A9
:100C8000310509F1D901F3CF9D01DA0133832283C4
:100C900060817181860F971F8217930769F4EC01B9
:100CA00028813981260F371F2E5F3F4F31832083E4
:100CB0008A819B8193838283452B29F4F0930402DC
:100CC000E093030242C01396FC93EE931297ED015A
:100CD000499159919E01240F351FE217F30771F4D2
:100CE00080819181840F951F029611969C938E931B
:100CF0008281938113969C938E931297E0E0F0E0AB
:100D0000D80112968D919C911397009719F0F801D4
:100D10008C01F6CF8D919C9198012E5F3F4F820FF1
:100D2000931F20910102309102022817390769F4BC
:100D3000309729F4109204021092030202C0138229
:100D400012821093020200930102DF91CF911F9152
:100D50000F910895A0E0B0E0E0EBF6E00C94C90735
:100D6000EC01009721F4CB010E947D05B8C0FC0185
:100D7000E60FF71F9C0122503109E217F30708F430
:100D8000ACC0D9010D911C91119706171707B0F04F
:100D90000530110508F49FC0C8010497861797070E
:100DA00008F499C002501109061B170B0193119307
:100DB0006D937C93CF010E9412068DC05B01A01A37
:100DC000B10A4C01800E911EA0910302B091040261
:100DD00040E050E0E12CF12C109709F44AC0A8152E
:100DE000B905D1F56D907C901197630182E0C80E32
:100DF000D11CCA14DB0480F1A3014A195B096A0102
:100E000082E0C80ED11C1296BC9012971396AC913A
:100E1000B5E0CB16D10440F0B282A3835183408366
:100E2000D9016D937C930AC00E5F1F4FC301800FE1
:100E3000911FF90191838083EB2DFA2FE114F104C6
:100E400031F0D7011396FC93EE93129744C0F093C0
:100E50000402E09303023FC08D919C9111974817C3
:100E6000590708F4AC017D0112960D90BC91A02D9C
:100E7000B3CF809101029091020288159905E1F4A7
:100E800046175707C8F480911701909118010097F1
:100E900041F48DB79EB740911B0150911C01841BFA
:100EA000950BE817F907C8F4F0930202E0930102EA
:100EB000F901718360830FC0CB010E947D057C0125
:100EC000009759F0A801BE010E947907CE010E9447
:100ED0001206C70104C0CE0102C080E090E0CDB789
:100EE000DEB7EEE00C94E50781E090E0F8940C9416
:100EF000FC07FB01DC0102C001900D924150504003
:100F0000D8F70895FB01DC0101900D920020E1F774
:100F100008951F93FC0199278827BC01E89411913B
:100F20001032E9F3193010F01E30C8F31B3251F0C3
:100F30001D3249F4689406C00E94B007610F711D0C
:100F4000811D911D119110531A30B0F33EF490950C
:100F50008095709561957F4F8F4F9F4F1F9108959A
:100F6000592F482F372F262F660F771F881F991F5D
:100F7000660F771F881F991F620F731F841F951FAD
:100F8000660F771F881F991F08952F923F924F92E7
:100F90005F926F927F928F929F92AF92BF92CF9209
:100FA000DF92EF92FF920F931F93CF93DF93CDB712
:100FB000DEB7CA1BDB0B0FB6F894DEBF0FBECDBF8A
:100FC00009942A88398848885F846E847D848C845B
:100FD0009B84AA84B984C884DF80EE80FD800C8164
:100FE0001B81AA81B981CE0FD11D0FB6F894DEBF47
:0C0FF0000FBECDBFED010895F894FFCFB7
:100FFC003C303030303030303030303030303030D9
:10100C003030303030303E000005028000000000EF
:10101C00002F01AB00F800D600EA007601030005B2
:10102C0000060009000A000B000000436F6E6E659D
:06103C00637465642100ED
:00000001FF
