:1000000061C0000084C0000082C0000080C0000009
:100010007EC000007CC000007AC0000078C00000F4
:1000200076C0000074C0000072C0000070C0000004
:100030006EC000006CC000006AC0000068C0000014
:100040007EC2000064C00000E9C20000C2C200001D
:100050005EC000005CC000005AC0000058C0000034
:1000600056C0000054C0000000000000230026001D
:10007000290000000008000201000003040700003E
:1000800000000000000000000000250028002B00F8
:1000900000000000240027002A00040404040404D3
:1000A0000404020202020202030303030303010227
:1000B00004081020408001020408102001020408F6
:1000C00010201B0511241FBECFEFD8E0DEBFCDBF2F
:1000D00011E0A0E0B1E0E0EDFFE002C005900D927C
:1000E000A834B107D9F722E0A8E4B1E001C01D921D
:1000F000A730B207E1F710E0C2E6D0E003C02197D5
:10010000FE01E8D4C136D107D1F7BAD25FC778CFA4
:1001100090E0FC01E255FF4F2491FC01E656FF4FB1
:100120008491882399F090E0880F991FFC01E05793
:10013000FF4FA591B491FC01EA57FF4F859194912F
:100140008FB7F894EC91E22BEC938FBF0895833036
:1001500081F028F4813099F08230A1F00895873041
:10016000A9F08830B9F08430D1F4809180008F7D7F
:1001700003C0809180008F7780938000089584B5BC
:100180008F7702C084B58F7D84BD08958091B000C3
:100190008F7703C08091B0008F7D8093B000089569
:1001A0001F93CF93DF93282F30E0F901EE58FF4FD4
:1001B0008491F901E255FF4FD491F901E656FF4FC2
:1001C000C491CC23C1F0162F8111C1DFEC2FF0E0D8
:1001D000EE0FFF1FEA57FF4FA591B4918FB7F89428
:1001E000111105C09C91ED2FE095E92302C0EC911F
:1001F000ED2BEC938FBFDF91CF911F9108951F934B
:10020000CF93DF93182FEB0183DF209711F460E089
:1002100004C0CF3FD10531F461E0812FDF91CF9150
:100220001F91BECFE12FF0E0EE58FF4FE491E33095
:10023000F9F048F4E130B9F0E230A1F584B580621C
:1002400084BDC8BD34C0E730E9F0E83019F1E430CE
:1002500049F580918000806280938000D0938B006C
:10026000C0938A0024C084B5806884BDC7BD1FC008
:1002700080918000806880938000D0938900C09333
:10028000880015C08091B00080688093B000C09352
:10029000B3000DC08091B00080628093B000C09325
:1002A000B40005C0C038D1050CF0B6CFB0CFDF9197
:1002B000CF911F910895CF92DF92EF92FF920F930B
:1002C0001F93CF93DF936C017A018B01C0E0D0E0E4
:1002D000CE15DF0589F0D8016D918D01D601ED9124
:1002E000FC910190F081E02DC6010995892B11F454
:1002F0007E0102C02196ECCFC701DF91CF911F9103
:100300000F91FF90EF90DF90CF900895089580E0D7
:1003100090E00895FC01538D448D252F30E0842F0B
:1003200090E0821B930B541710F0CF96089501971D
:100330000895FC01918D828D981761F0828DDF0107
:10034000A80FB11D5D968C91928D9F5F9F73928FC8
:1003500090E008958FEF9FEF0895FC01918D828DBD
:10036000981731F0828DE80FF11D858D90E008958A
:100370008FEF9FEF0895FC01918D228D892F90E0E2
:10038000805C9F4F821B91098F73992708958AE49F
:1003900091E0F1DF21E0892B09F420E0822F08951C
:1003A000FC01848DDF01A80FB11DA35ABF4F2C9112
:1003B000848D90E001968F739927848FA689B789E1
:1003C0002C93A089B1898C9180648C93938D848DBA
:1003D000981306C00288F389E02D80818F7D808389
:1003E0000895EF92FF920F931F93CF93DF93EC0149
:1003F00081E0888F9B8D8C8D981305C0E889F989E1
:10040000808185FD23C0F62E0B8D10E00F5F1F4FFE
:100410000F731127E02E8C8DE8120BC00FB607FC6E
:10042000FACFE889F989808185FFF5CFCE01B8DF61
:10043000F2CF8B8DFE01E80FF11DE35AFF4FF082E2
:100440000B8FEA89FB898081806207C0EE89FF8972
:100450006083E889F98980818064808381E090E00D
:10046000DF91CF911F910F91FF90EF900895CF935F
:10047000DF93EC01888D8823C1F0EA89FB898081B4
:1004800085FD05C0A889B9898C9186FD0EC00FB67F
:1004900007FCF5CF808185FFF2CFA889B9898C91BF
:1004A00085FFEDCFCE017CDFE8CFDF91CF910895BE
:1004B00080E090E0892B21F06ADF81110C9400002C
:1004C0000895FED4EF92FF920F931F93CF93DF9383
:1004D000EC017B018A0188819981009729F02A81AA
:1004E0003B8124173507E8F4B8016F5F7F4F25D4AF
:1004F000009759F0998388831B830A832C813D815F
:10050000232B79F4FC0110820CC08881998100971B
:1005100009F07BD3198218821D821C821B821A82E9
:1005200006C01D830C83B70188819981D6D4CE0182
:10053000DF91CF911F910F91FF90EF9008951F923F
:100540000F920FB60F9211242F933F938F939F9387
:10055000AF93BF938091FF0190910002A09101029F
:10056000B09102023091FE0123E0230F2D3720F4D9
:100570000196A11DB11D05C026E8230F0296A11DFD
:10058000B11D2093FE018093FF0190930002A09380
:100590000102B09302028091FA019091FB01A091B7
:1005A000FC01B091FD010196A11DB11D8093FA01DE
:1005B0009093FB01A093FC01B093FD01BF91AF911B
:1005C0009F918F913F912F910F900FBE0F901F9091
:1005D00018951F920F920FB60F9211242F933F93ED
:1005E0004F935F936F937F938F939F93AF93BF933B
:1005F000EF93FF938AE491E0D3DEFF91EF91BF91F7
:10060000AF919F918F917F916F915F914F913F91AA
:100610002F910F900FBE0F901F9018951F920F9261
:100620000FB60F9211242F938F939F93EF93FF9305
:10063000E0915A01F0915B018081E0916001F091BD
:10064000610182FD12C09081809163018F5F8F7381
:1006500020916401821751F0E0916301F0E0E65BC4
:10066000FE4F958F8093630101C08081FF91EF91D0
:100670009F918F912F910F900FBE0F901F90189503
:10068000CF93DF93CDB7DEB72D970FB6F894DEBFCB
:100690000FBECDBF789484B5826084BD84B581607F
:1006A00084BD85B5826085BD85B5816085BD80913D
:1006B0006E00816080936E001092810080918100B5
:1006C00082608093810080918100816080938100AD
:1006D000809180008160809380008091B10084606F
:1006E0008093B1008091B00081608093B0008091D0
:1006F0007A00846080937A0080917A00826080938F
:100700007A0080917A00816080937A0080917A00EB
:10071000806880937A001092C100E0915A01F091B4
:100720005B0182E08083E0915601F09157011082D5
:10073000E0915801F09159018FEC80831092620191
:10074000E0915E01F0915F0186E08083E0915C01C1
:10075000F0915D01808180618083E0915C01F09186
:100760005D01808188608083E0915C01F0915D0192
:10077000808180688083E0915C01F0915D018081DF
:100780008F7D80830FE211E0F80180810E5F1F4FA3
:10079000BFDCF1E00B331F07B9F74AE050E06DE32F
:1007A00071E08AE491E087DDBB24B39430E0632EEE
:1007B00031E0732E44E6242E312C412C512C8AE456
:1007C00091E0D9DD181619060CF042C08091EB01BA
:1007D00081113EC08AE491E0ACDD909149019923FA
:1007E00089F1E09148018E3379F0AE2FB0E0A0504E
:1007F000BF4F8C93EF5FE73118F4E0934801DFCFF0
:1008000026E120934801DBCFF0E0E050FF4F10825B
:100810001092490110924801B092EB012FB7F89461
:100820008091FF0190910002A0910102B09102021B
:100830002FBF8093E7019093E801A093E901B09363
:10084000EA01BDCF8C3309F0BACFB0924901B7CFDE
:1008500018861F821A8619861C861B86F301019052
:100860000020E9F73197AF014050514060E071E05E
:10087000CE01079627DE2FB7F8948091FF01909163
:100880000002A0910102B09102022FBF4091E70146
:100890005091E8016091E9017091EA01841B950B88
:1008A000A60BB70B883E9340A105B10508F077C0B1
:1008B0002CEE822E21E0922E00E010E0680183E011
:1008C000C80ED11CC016D10620F4202FA12E8601FF
:1008D00002C02C2DAD2C1A8219821C821B821E8212
:1008E0001D8240E050E067E471E0CE0101962D8763
:1008F000E9DD8B859C852D850817190780F5E22E8B
:10090000FA2C8E159F0508F47C01EF81F885EE0D19
:10091000FF1DA08010826F817885600F711F6115A7
:10092000710561F0FB0101900020E9F73197AF01FB
:10093000461B570BCE010196C5DD0BC089819A81FC
:10094000009709F062D11A8219821E821D821C82D0
:100950001B828F819885FC01EE0DFF1DA08209810D
:100960001A810115110519F0C801BED203C060E05B
:1009700070E0CB01F401619371934F01C80145D13F
:1009800086010531110509F099CF8F8198853DD1F8
:100990000CEE11E091E3E92E91E0F92E09C0ECEEA6
:1009A000F1E01192119221E0EA3FF207D1F7EDCF89
:1009B000F801619171918F01F7018081F2E0EF0EF2
:1009C000F11C1DDC21E0063F120791F72FB7F894C8
:1009D0006091FF01709100028091010290910202EA
:1009E0002FBFA201910154D020FD18C0EFE7F0E025
:1009F0008491EBEBF0E00491E7EAF0E0149111232D
:100A000069F08111A4DBE12FF0E0EE0FFF1FE85940
:100A1000FF4FA591B491EC910E2341F460E070E09A
:100A200083E0EDDB1092EB0143DDC9CE6091F6016E
:100A30007091F701F5CFEAE4F1E01382128288EEBB
:100A400093E0A0E0B0E084839583A683B78381E23E
:100A500091E09183808385EC90E09587848784EC96
:100A600090E09787868780EC90E0918B808B81EC7B
:100A700090E0938B828B82EC90E0958B848B86EC5C
:100A800090E0978B868B118E128E138E148E0895A4
:100A9000A1E21A2EAA1BBB1BFD010DC0AA1FBB1F82
:100AA000EE1FFF1FA217B307E407F50720F0A21BF4
:100AB000B30BE40BF50B661F771F881F991F1A9461
:100AC00069F760957095809590959B01AC01BD018B
:100AD000CF010895EE0FFF1F0590F491E02D0994CA
:100AE000CF93DF938230910510F482E090E0E091A3
:100AF0000502F091060220E030E0C0E0D0E030973F
:100B000011F14081518148175907C0F04817590722
:100B100061F482819381209719F09B838A832BC093
:100B2000909306028093050226C02115310519F025
:100B30004217530718F49A01BE01DF01EF0102804A
:100B4000F381E02DDCCF2115310509F1281B390B8C
:100B50002430310590F412968D919C911397611574
:100B6000710521F0FB019383828304C090930602F8
:100B700080930502FD01329644C0FD01E20FF31F90
:100B800081939193225031092D933C933AC0209147
:100B9000030230910402232B41F42091190130917A
:100BA0001A0130930402209303022091170130911F
:100BB00018012115310541F42DB73EB740911B01B5
:100BC00050911C01241B350BE0910302F0910402AB
:100BD000E217F307A0F42E1B3F0B2817390778F014
:100BE000AC014E5F5F4F2417350748F04E0F5F1F73
:100BF00050930402409303028193919302C0E0E07A
:100C0000F0E0CF01DF91CF9108950F931F93CF9321
:100C1000DF93009709F48CC0FC0132971382128293
:100C200000910502109106020115110581F4208141
:100C30003181820F931F2091030230910402281703
:100C4000390779F5F0930402E093030271C0D801EB
:100C500040E050E0AE17BF0750F412962D913C9142
:100C60001397AD012115310509F1D901F3CF9D018C
:100C7000DA013383228360817181860F971F821787
:100C8000930769F4EC0128813981260F371F2E5F05
:100C90003F4F318320838A819B8193838283452BBD
:100CA00029F4F0930602E093050242C01396FC93E8
:100CB000EE931297ED01499159919E01240F351F32
:100CC000E217F30771F480819181840F951F0296DA
:100CD00011969C938E938281938113969C938E930D
:100CE0001297E0E0F0E0D80112968D919C91139755
:100CF000009719F0F8018C01F6CF8D919C91980125
:100D00002E5F3F4F820F931F209103023091040208
:100D10002817390769F4309729F4109206021092C7
:100D2000050202C013821282109304020093030290
:100D3000DF91CF911F910F910895A0E0B0E0E2EA1A
:100D4000F6E011C1EC01009719F4CB01C9DEB4C083
:100D5000FC01E60FF71F9C0122503109E217F3074F
:100D600008F4A8C0D9010D911C9111970617170717
:100D7000A8F00530110508F49BC0C8010497861738
:100D8000970708F495C002501109061B170B019331
:100D900011936D937C93CF0138DF8AC05B01A01A59
:100DA000B10A4C01800E911EA0910502B09106027D
:100DB00040E050E0E12CF12C109709F44AC0A8154E
:100DC000B905D1F56D907C901197630182E0C80E52
:100DD000D11CCA14DB0480F1A3014A195B096A0122
:100DE00082E0C80ED11C1296BC9012971396AC915B
:100DF000B5E0CB16D10440F0B282A3835183408387
:100E0000D9016D937C930AC00E5F1F4FC301800F01
:100E1000911FF90191838083EB2DFA2FE114F104E6
:100E200031F0D7011396FC93EE93129741C0F093E3
:100E30000602E09305023CC08D919C9111974817E2
:100E4000590708F4AC017D0112960D90BC91A02DBC
:100E5000B3CF809103029091040288159905E1F4C3
:100E600046175707C8F48091170190911801009711
:100E700041F48DB79EB740911B0150911C01841B1A
:100E8000950BE817F907B0F4F0930402E09303021E
:100E9000F901718360830CC0CB0122DE7C010097D5
:100EA00049F0A801BE0110D0CE01AFDEC70104C0D9
:100EB000CE0102C080E090E0CDB7DEB7EEE06FC0BB
:100EC00081E090E0F89482C0FB01DC0102C0019057
:100ED0000D9241505040D8F70895FB01DC0101907C
:100EE0000D920020E1F708951F93FC0199278827B0
:100EF000BC01E89411911032E9F3193010F01E3062
:100F0000C8F31B3249F01D3241F4689405C012D079
:100F1000610F711D811D911D119110531A30B8F38D
:100F20003EF490958095709561957F4F8F4F9F4FC0
:100F30001F910895592F482F372F262F660F771F9F
:100F4000881F991F660F771F881F991F620F731FD5
:100F5000841F951F660F771F881F991F08952F9272
:100F60003F924F925F926F927F928F929F92AF9239
:100F7000BF92CF92DF92EF92FF920F931F93CF9386
:100F8000DF93CDB7DEB7CA1BDB0B0FB6F894DEBF1D
:100F90000FBECDBF09942A88398848885F846E8443
:100FA0007D848C849B84AA84B984C884DF80EE808D
:100FB000FD800C811B81AA81B981CE0FD11D0FB696
:100FC000F894DEBF0FBECDBFED010895F894FFCFBA
:100FD0003C30303030303030303030303030303005
:100FE0003030303030303E0000070280000000001A
:100FF00000F1015B018A013702BB019901AD0103D8
:10100000000500060009000A000B000000436F6E97
:081010006E6563746564210044
:00000001FF
